:020000040800F2
:10000000484F00209D010008BB2A00081124000869
:10001000B92A0008AF0200083D44000800000000B3
:1000200000000000000000000000000005010008C2
:100030006D0400080000000049010008A940000804
:10004000B7010008B7010008B7010008B7010008B0
:10005000B7010008B7010008B7010008B7010008A0
:10006000B7010008B7010008B7010008B701000890
:10007000B7010008B7010008B7010008B701000880
:10008000B7010008B7010008B7010008B701000870
:10009000B7010008B7010008B7010008B701000860
:1000A000B7010008B7010008B7010008B701000850
:1000B000B70100083541000841410008B7010008B8
:1000C000B7010008B7010008B7010008B701000830
:1000D000B7010008B7010008B7010008B701000820
:1000E000B7010008B7010008B7010008DFF810D019
:1000F00000F09CF8004800471D450008AFF3008061
:10010000484F0020224B19680868B0E8F00F80F3D0
:100110000988BFF36F8F4FF0000080F311884EF015
:100120000D0E70470000000006480068006880F36C
:10013000088862B661B6BFF34F8FBFF36F8F00DFE1
:1001400000BF00BF08ED00E0EFF30980BFF36F8F41
:100150000F4B1A6820E9F00F106008B54FF05000FF
:1001600080F31188BFF34F8FBFF36F8F05F0F6F95F
:100170004FF0000080F31188BDE808401968086856
:10018000B0E8F00F80F30988BFF36F8F704700BFAE
:10019000CC0F0020EFF30580704700000648804731
:1001A00006480047FEE7FEE7FEE7FEE7FEE7FEE75C
:1001B000FEE7FEE7FEE7FEE733410008ED0000083A
:1001C0000649074A0868504343F239021044086060
:1001D0004008704701490860704700003011002056
:1001E0006D4EC64140EA01039B0703D009E008C9F0
:1001F000121F08C0042AFAD203E011F8013B00F8EC
:10020000013B521EF9D27047D2B201E000F8012B37
:10021000491EFBD270470022F6E710B513460A4686
:1002200004461946FFF7F0FF204610BD064C074D67
:1002300006E0E06840F0010394E8070098471034B6
:10024000AC42F6D3FFF756FFC0800008E0800008FC
:1002500070B58D1810F8014B14F0030201D110F89D
:10026000012B231106D110F8013B03E010F8016BBC
:1002700001F8016B521EF9D1ABB110F8012B04F05B
:100280000C048A1A0C2C03D0A2EB84129B1C08E0ED
:1002900010F8014BA2EB0422F8E712F8014B01F829
:1002A000014B5B1EF9D5A942D4D3002070BDFEE7F7
:1002B00070B52A488178502930D10078002401286F
:1002C0001DD002282BD0032832D0042839D005288D
:1002D00024D1244D052300222149286804F0EAFF97
:1002E0001F48007B032801D0022817D1286804F09A
:1002F00099FF2C60BDE87040002003F019B91B4D38
:10030000052300221849286804F0D4FF164820E08D
:10031000022803D1286804F085FF2C6070BD154DBC
:10032000052300221249286804F0C4FF104810E099
:10033000124D052300221049286804F0BBFF0E4827
:1003400007E0104D052300220D49286804F0B2FF94
:100350000B48007B0328DDD0DAE7000050100020B6
:10036000E0140020B80F002050140020A80F002037
:1003700074140020AC0F002098140020B00F00204F
:10038000BC140020B40F002070B598B004461C21A6
:100390006846FFF740FF1C2107A8FFF73CFF1C2120
:1003A0000EA8FFF738FFC4F307404FF4FA6568431F
:1003B000FF2590FBF5F06023CDE90030C4F3072260
:1003C0004FF4FA60424392FBF5F0E6B202240021BA
:1003D00002940491CDE907304FF4FA60464396FB4E
:1003E000F5F009940B91CDE90F04164C12910E9380
:1003F0000821206801F052FF0021206801F04EFF23
:100400000421206801F04AFF08226946206801F0B3
:1004100062FE002207A9206801F05DFE04220EA9F9
:10042000206801F058FE0821206801F0E9FE002153
:10043000206801F0E5FE0421206801F0E1FE18B01B
:1004400070BD000044100020002402F087FA064D21
:100450004FF47A762046FFF797FF601920F07F442B
:10046000304604F0B9FEF5E7400D03007047000088
:1004700038B508232BA20221202002F0D4FE2C48FC
:10048000122300901A4615210A2002F051FE294835
:10049000122300901A461521282002F049FE264812
:1004A000122300901A461521462002F041FE2348EF
:1004B000122300901A461521642002F039FE1423FD
:1004C00000241A4619460920009402F0ADFC1423BA
:1004D0001A4619462720009402F0A6FC14231A4657
:1004E00019464520009402F09FFC14231A46194631
:1004F0006320009402F098FC062311A23221102000
:1005000002F091FE122364222C210E20009402F0AE
:100510008BFC0021402380220846009402F084FCDA
:1005200038BD000057656C636F6D652100000000E9
:10053000D0670008066800083C6800087268000878
:100540004A5446732047616D65436F6E736F6C65E7
:100550000000000008B502F0F1FA06480021009002
:1005600040238022084602F0E3FDBDE8084002F087
:1005700071BE0000946C0008F74D08B5286804F0BF
:1005800097FF02F095FFFFF7E5FFF44C45276770F2
:1005900000F0ECFC2070DFF8C8A3DFF8C8B3DFF888
:1005A000C8934FF0000806261BE0607000F0DEFCE8
:1005B0002070492802D050280AD00FE0286804F0A3
:1005C000F5FE002004F074FF2770FFF7C3FF05E07D
:1005D000286804F0EBFE002004F024FE322004F032
:1005E000FBFD20784528E0D161784529DDD000BFAA
:1005F00002F0A4FAE078012806D02079401CC0B2AD
:100600002071062850D054E0D84800902823272293
:100610001821002002F08CFD0823D5A20121002022
:1006200002F001FE0623D5A218212D2002F0FBFDC9
:1006300000960523228A2021622002F0D1FD2D217F
:100640000623D1A2084602F0EEFD00960523E289BA
:100650003521622002F0C4FD02F0FCFD00F086FCB2
:10066000207045280AD1E089218A884200D9208259
:1006700002F01EFF02F062FA02F0ECFD2078492839
:1006800002D0502808D00DE0286804F08FFE00202A
:1006900004F00EFF277005E0286804F087FE0020B4
:1006A00004F0C0FD3220A0E1E089401CE08184F824
:1006B0000480B4F91C00002804DC2078607000F08D
:1006C00055FC2070618AA08A843988425044009089
:1006D0004FF008034FF080024FF038014FF0000058
:1006E00006DA02F025FDA08A61790844A08203E0C1
:1006F00002F01EFDA4F81480B4F91A00217A014416
:10070000002902DC8020608301E0802808D1FFF707
:1007100057FDC11700EB117121F00F01401A6072F3
:10072000002108239BA2084602F07DFD082399A220
:100730001946002002F077FDB4F91A00002809DA02
:10074000ABEB00010091217A08230844C2B2617A20
:10075000002005E0CDF800B0617AC0B20823227A0B
:1007600002F0E6FC608B94F90710401A6083B4F93C
:100770001C10002902DC207845284CD160782278B2
:10078000904248D0207BC8B9744A94F90B001E32BD
:1007900010231256401E114409B2A183E072C1F128
:1007A0002C00C1B21A461846CDF8009002F0C0FCE9
:1007B00094F90B00002801DC84F80B80207B0128D1
:1007C0001AD1664994F90B001E31A28B0956401CC0
:1007D000511A09B2A183E072C1F12C001023C1B2F9
:1007E0001A461846CDF8009002F0A2FC94F90B00CE
:1007F000082801DB0820E072B4F91C001F2803DB85
:10080000012020731F2004E0002813DC404684F8F8
:100810000C80A0830EE0A07A401C10F00100A072B2
:100820000CD038B16048102300901A463021184689
:1008300002F07EFCE08A802802D00AE05B48F2E702
:10084000FFF7BEFCC11700EB917121F00301401AC4
:10085000A071A07930B1012806D0022806D0032863
:1008600004D005E0082102E0102100E018212183D6
:10087000B4F91610002914DA28B1012805D002288D
:100880000DD04B4802E04B4800E04B481023401A83
:100890000090207E0844C2B2302100200CE047487E
:1008A000F4E7E8B3012853D0022853D04048009021
:1008B000C8B2227E1023302102F03AFCE08A61792E
:1008C000401A00B2E082B4F918100844002801DC94
:1008D0008020E082B4F91C0010280FDAB4F9160069
:1008E000A0F111020F2A03D3084412380D2805D2B3
:1008F0000120E0704FF4FA7004F06EFC062330A281
:100900000021232002F08FFC00960523228A00217B
:100910003A2002F065FC05230096E289002100E000
:1009200014E0622002F05CFC02F094FCE1891420E7
:10093000B1FBF0F0C0B2A0701D2801D91D20A0703D
:100940002078492840D0502846D04BE01948AEE7DF
:100950001948ACE736E00000A00F00205810002036
:10096000A8680008286A0008D46B00089470000882
:1009700047414D45204F5645522100004869676860
:100980002053636F72653A004E6F772053636F7226
:10099000653A000020202020202020202020202038
:1009A0002020202000000000646A0008446A00083B
:1009B000646C0008046C0008146C0008346C0008B7
:1009C00048493A000A4872E7286804F0EFFC002022
:1009D00004F06EFD277005E0286804F0E7FC0020B5
:1009E00004F020FCA078C0F11E0004F0F5FBFFE548
:1009F000346C000872B6FEE770B50F4C00206081C1
:100A0000A0708020A081FFF7DBFB242590FBF5F18F
:100A100005FB1100401CE070C020E081FFF7D0FB17
:100A200090FBF5F105FB1100401C20710A2060715C
:100A30001E20A07170BD000080100020744D286839
:100A400004F036FDFFF7D8FF00F0BEF9714C4526E3
:100A5000667000F0CDFA20704FF080084FF02A0940
:100A600001271BE0607000F0C3FA2070492802D013
:100A700050280AD00FE0286804F098FC002004F009
:100A800017FD267000F0A0F905E0286804F08EFC40
:100A9000002004F0C7FB322004F09EFB207845289C
:100AA000E0D161784529DDD0A078012809D002F095
:100AB00045F82078607000F09BFA207045282CD013
:100AC00030E000F0CBF800F093FA2070452804D015
:100AD00049280ED0502816D01BE060892189884211
:100AE00000D92081FFF788FF02F028F802F0B2FB5E
:100AF0000FE0286804F05AFC002004F0D9FC2670AE
:100B000000F0ACF805E0286804F050FC002004F088
:100B100089FB322004F060FBC6E76078452801D0ED
:100B20001E20A071A0890A21801EA081E089801E5C
:100B3000E081A079401F40B2A07190FBF1F0617993
:100B4000081A607100F0C6F894F90500002802DA6E
:100B50000020607102E0402800DDA770B4F90C00AD
:100B60000A3009D1A4F80C80FFF72AFB90FBF9F2B8
:100B700009FB1200401CE070B4F90E000A3009D1E4
:100B8000A4F80E80FFF71CFB90FBF9F209FB1200A2
:100B9000401C2071B4F90C00A0F114010B2909D8F4
:100BA00094F90520E1788A4203DB243108328A4235
:100BB00000DDA770B4F90E10A1F114020B2A09D8B8
:100BC00094F905302279934203DB243208339342AF
:100BD00000DDA770102801D0102902D16089401CC7
:100BE00060811E2004F0F8FA2078492808D05028A7
:100BF00092D1286804F0DAFB002004F013FB53E7DD
:100C0000286804F0D3FB002004F052FC26704BE768
:100C1000A00F00208010002010B50F4C207A41B2A8
:100C2000E07940B202F0E8F8207A401C41B2E07965
:100C300040B202F0E1F8207A41B2E079401E40B2C1
:100C400002F0DAF8207A401C41B2E079BDE81040A9
:100C5000401E40B202F0D0B8A810002038B501F014
:100C60006DFF14480021009020238022084602F0E6
:100C70005FFA062310A220211F2002F0D4FA114DA2
:100C80000624009404232A892821342002F0A8FA9B
:100C900006230DA23021222002F0C5FA009404237D
:100CA0006A893821342002F09BFABDE8384002F00E
:100CB000D1BA0000767A0008486967682053636FEC
:100CC00072653A00801000204E6F772053636F7278
:100CD000653A000038B501F031FF062337A2002144
:100CE000322002F0A0FA364C062500950423228912
:100CF0000021442002F074FA009504236289002147
:100D0000682002F06DFA01250095E3780A2200219F
:100D1000B4F90C0002F0CBF80095A089E178801EB0
:100D200006230E2200B2891F02F0C1F80095E17877
:100D30000A22C1F14000C3B2B4F90C001E3102F026
:100D4000B6F80095A089E178801E06230E2200B235
:100D50001E3102F0ACF8009523790A220021B4F983
:100D60000E0002F0A4F80095E0892179801E062388
:100D70000E2200B2891F02F09AF8009521790A220A
:100D8000C1F14000C3B2B4F90E001E3102F08FF879
:100D90000095E0892179801E06230E2200B21E31C3
:100DA00002F085F807480090617908230B2214208F
:100DB00002F0BEF9BDE8384002F04CBA48693A008A
:100DC00080100020767C000808B501F0B7FE0648C8
:100DD0000021009040238022084602F0A9F9BDE8D6
:100DE000084002F037BA00007676000838B554485B
:100DF000052300225149006804F05CFA524805239B
:100E000000225049006804F055FA51480523002299
:100E10004E49006804F04EFA4F48052300224D4920
:100E2000006804F047FA4E48052300224B49006849
:100E300004F040FA414800254A4C007B032801D0C9
:100E400002280FD118231A4612210720009501F01D
:100E5000EBFF2078012805D1062343A201216C2055
:100E600002F0E1F93748007B032801D002280FD1B6
:100E700018231A4612212520009501F0D5FF20786D
:100E8000022805D1062338A201216C2002F0CBF9FB
:100E90002E48007B032801D002280FD118231A46C0
:100EA00012214320009501F0BFFF2078032805D1CF
:100EB00006232DA201216C2002F0B5F92548007B04
:100EC000032801D002280FD118231A4612216120CD
:100ED000009501F0A9FF2078042805D1062322A25D
:100EE00001216C2002F09FF91C4D287B02280ED1B5
:100EF0000123022230216C2001F066FE20780528B3
:100F000005D1062318A201216C2002F08CF9287B60
:100F1000032811D10023022230216C2001F054FE5D
:100F20002078052808D101B00623BDE83040012112
:100F30000DA26C2002F077B938BD000050140020DB
:100F4000A80F002074140020AC0F0020981400207B
:100F5000B00F0020BC140020B40F0020E0140020CB
:100F6000B80F00205010002072756E0070B51E4D35
:100F700000241021284600F07FFA20B320212846C3
:100F800000F07AFA08B34021284600F075FAF0B173
:100F90008021284600F070FAD8B1A914134D2846D4
:100FA00000F06AFAB8B16914284600F065FAA0B1F9
:100FB0000121284600F060FA88B10221284600F09D
:100FC0005BFA70B10EE040240CE041240AE04224B8
:100FD00008E0432406E0452404E0462402E04924D6
:100FE00000E05024204670BD00080140000C014084
:100FF000044900200A78002A02D04A780870104676
:10100000704700004C10002038B501F097FD1448DF
:101010000021009039234022084602F089F8062377
:1010200010A20C213E2002F0FEF8114D062400947F
:1010300004236A891421682002F0D2F806230DA245
:1010400021213E2002F0EFF800940423AA892921EF
:10105000682002F0C5F8BDE8384002F0FBB8000097
:10106000B47E0008486967682053636F72653A0070
:10107000A810002053636F72653A000007480421EE
:1010800000228170C270828101712221417123216D
:1010900081715622C271017270470000A8100020B1
:1010A00008B501F04BFD1348002100904023442275
:1010B000084602F03DF808230FA20A21442002F05E
:1010C000B2F808230EA21A21582002F0ACF80E48FC
:1010D00000900523132239216D2002F029F8062300
:1010E0000AA22A21682002F09EF8BDE8084002F01A
:1010F000B1B80000817C0008477265656479000022
:10110000536E616B65000000A17E000876312E30C1
:10111000000000005D4D08B5286804F0C9F9FFF72C
:10112000ADFFFFF7BDFF5A4C45262670FFF760FF65
:1011300060701BE02070FFF75BFF6070492802D0F1
:1011400050280AD00FE0286804F030F9002004F09D
:10115000AFF96670FFF7A4FF05E0286804F026F9F0
:10116000002004F05FF8322004F036F8607845285B
:10117000E0D121784529DDD001F0E0FCE0780128BC
:101180000BD00020362380220A21009001F04CFE73
:10119000A07860B301F092FC44E0FFF735FFFFF761
:1011A00027FF6070452804D049280ED0502814D05D
:1011B00019E0A0896189884200D96081FFF75EFF4C
:1011C00001F0BCFC02F046F80DE0286804F0EEF8EF
:1011D000002004F06DF9667005E0286804F0E6F878
:1011E000002004F01FF8322003F0F6FFC4E7607817
:1011F0002070FFF7FDFE60702178884207D04028FC
:1012000038D0412836D0422834D0432832D002F09A
:1012100025FB00BF01F0D6F902F0F4FA02F054FB0E
:10122000FFF7FAFC06231BA20021232001F0FBFF9D
:10123000062700970423628900213A2001F0D0FF9D
:1012400000970423A2890021622001F0C9FF03F066
:1012500049F901F0FFFF962003F0BEFF60784928AE
:101260000BD0502888D1286804F0A0F8002003F0A3
:10127000D9FF81E702F058FBCCE7286804F096F824
:10128000002004F015F9667076E70000A00F00203A
:10129000A810002048493A002DE9F84FDFF8B8912E
:1012A0000024A9F1040B23460F2709F1040AABF12E
:1012B000040EC9E00125A5402A40AA427DD1674E0F
:1012C000D1F804C0ACEB0608B44532D014DCBCF154
:1012D000030F3AD009DCBCF1000F2AD0BCF1010F9A
:1012E0001CD0BCF1020F31D11DE0BCF1110F17D0A1
:1012F000BCF1120F2AD119E0B8F5881F19D006DC0D
:10130000B8F5803F15D0B8F5801F1FD111E0B8F5B2
:10131000001F0ED0B8F5041F18D10AE0CB6815E005
:10132000CB681B1D12E0CB6808330FE0CB680C3391
:101330000CE08B682BB1012B4FF0080303D0456103
:1013400004E0042302E0056100E00023FF2A01D845
:10135000064601E000F104064FEA840501D9A5F133
:101360002005D6F8008007FA05FC28EA0C0803FAE5
:1013700005F548EA0508C6F800804D68ED0062D51D
:10138000374DAE6946F00106AE61AD6924F0030643
:1013900005F001050095334D06EB050CDCF808500F
:1013A000A607360F07FA06F825EA0805DFF8B88021
:1013B000404503D14FF0000817E044E0DFF8AC806F
:1013C000404502D14FF001080FE0DFF8A48040450E
:1013D00002D14FF0020808E0DFF89880404502D1C2
:1013E0004FF0030801E04FF0040808FA06F848EA55
:1013F0000508CCF808804D68D9F80060ED024D462C
:1014000001D5164300E096432E604D68DAF800607F
:10141000AD02554601D5164300E096432E604D6857
:10142000DBF80060AD035D4601D5164300E096434E
:101430002E604D68DEF80060ED03754601D5164359
:1014400000E096432E60641C0D682A46E5407FF458
:1014500031AFBDE8F88F0000080401400000111012
:10146000001002400000014000080140000C014053
:1014700000100140001401408068084000D00120A5
:1014800070470AB1016170470904FBE701488068B1
:1014900070470000BC0F00200248816802781144A8
:1014A00081607047BC0F0020074810B5016841F00B
:1014B00010010160032000F0B7F80F2000F006F8DB
:1014C00000F050F8002010BD0020024030B5054665
:1014D0001F4887B0C16941F00401C161C06906A914
:1014E00000F00400009001A800F046F90498B0B1A3
:1014F00000F062F940001749174AB0FBF1F11748B4
:10150000491E0260416040F2E7320021C0E9032138
:101510008160816100F0B4FB040003D015E000F0AD
:101520004BF9E8E70D4800F031FC04000DD11E2016
:1015300000F04DF8102D07D2002229461E2000F0A1
:1015400053F80748056000E0012407B0204630BD8D
:101550000010024040420F00000800402416002006
:10156000C00F00200F4808B5816941F00101816179
:10157000816901F001010091C16941F08051C161AF
:10158000C069002200F0805000900F21901E00F0F2
:101590002BF80548416821F0E06141F0007141609D
:1015A00008BD0000001002400000014000280DDBD3
:1015B00000F01F02012191404009800000F1E0206D
:1015C000C0F88011BFF34F8FBFF36F8F70470028B3
:1015D00009DB00F01F02012191404009800000F169
:1015E000E020C0F800117047F0B40E4B1B680C46A9
:1015F000C3F30223C3F10705042D00D90425191DE7
:10160000072901D2002300E0DB1E012606FA05F1BE
:10161000491E214099409E40761E16403143F0BC41
:1016200002F00DBF0CED00E0064900F0070208686B
:101630004FF6FF03184040EA0220034A10430860B7
:10164000704700000CED00E00000FA052DE9F047BE
:101650000F46050061D0434E306800F00700B842E5
:1016600009D2306820F0070038433060306800F05D
:101670000700B84251D128683B4C810712D540077A
:1016800003D5606840F4E06060602878000703D507
:10169000606840F4605060606068A96820F0F00005
:1016A000084360602878C00728D06868012810D0F7
:1016B0002168022810D0890700292EDA616821F0FC
:1016C000030101436160FFF7E1FE804641F2883982
:1016D0000DE021688903EFE78901EDE7FFF7D6FE0A
:1016E000A0EB0801494502D90320BDE8F0876068F6
:1016F000696800F00C00B0EB810FEFD1306800F0AA
:101700000700B8420BD9306820F00700384330603A
:10171000306800F00700B84201D00120E5E72878E2
:10172000400705D56068E96820F4E0600843606020
:101730002878000706D56068296920F4605040EADF
:10174000C100606000F058F86168084AC1F30311F5
:10175000515CC8400649086006480068FFF7B6FEBD
:101760000020C2E700200240001002408E5F000807
:10177000C80F0020C00F00200F2202600C4A5368DF
:1017800003F003034360536803F0F003836053687E
:1017900003F4E063C36052684FF4E06303EAD202EB
:1017A00002610448006800F007000860704700000C
:1017B00000100240002002400448054900684968C2
:1017C000044AC1F30221515CC8407047C80F002091
:1017D000001002409E5F00080448054900684968FF
:1017E000044AC1F3C221515CC8407047C80F0020B1
:1017F000001002409E5F00080E4A51680E4801F03A
:101800000C03042B11D0082B0FD10C48C1F38343D8
:10181000C903C05C0AD55168084AC1F34041921E11
:10182000515C054A5043B0FBF1F07047044948430E
:10183000704700000010024000127A007E5F00082E
:1018400000093D002DE9F84F040070D02078C04D0C
:10185000C00749D06868C0F38100012807D06868D4
:10186000C0F38100022809D16868C00306D5286842
:10187000800339D560680028E7D035E06068B0F5AE
:10188000803F0BD010B1B0F5A02F11D0286820F404
:1018900080302860286820F4802002E0286840F426
:1018A00080302860606890B1FFF7F0FD06460AE0DE
:1018B000286840F480202860F0E700BFFFF7E6FDCD
:1018C000801B642873D828688003F7D50CE0FFF7E5
:1018D000DDFD064605E000BFFFF7D8FD801B64284C
:1018E000F0D828688003F7D420789A4E80074FF00C
:1018F00001094FF0000839D5686810F00C0F07D0C7
:101900006868C0F38100022809D16868C00306D462
:101910002868800714D52069012808D110E02069C3
:10192000B0B1C6F80090FFF7B1FD074605E00AE147
:10193000FFF7ACFDC01B0228C4D828688007F7D584
:101940002868616920F0F80040EAC10028600DE0D5
:10195000C6F80080FFF79AFD074604E0FFF796FD02
:10196000C01B022823D828688007F7D420780007F6
:101970002CD57948A169D9B1C0F80090FFF786FD50
:10198000074604E0FFF782FDC01B02280FD8686AF3
:101990008007F7D571484FF4FA510068B0FBF1F0B9
:1019A000009000BF0098411E0091FAD20EE080E046
:1019B000C0F80080FFF76AFD074604E0FFF766FD08
:1019C000C01B022875D8686A8007F7D420784007C2
:1019D00060D5E8690027C00008D4E86940F080506D
:1019E000E861E869012700F0805000905C480168D8
:1019F000C90513D40168834641F480710160FFF783
:101A000045FD824606E000BFFFF740FDA0EB0A005F
:101A100064284ED8DBF80000C005F5D5E068012841
:101A20000AD008B1052813D0286A20F001002862E6
:101A3000286A20F0040002E0286A40F001002862D1
:101A4000E06841F2883B98B1FFF720FD82460BE049
:101A5000286A40F004002862EEE700BFFFF716FD99
:101A6000A0EB0A0159455AD8286A8007F6D50CE040
:101A7000FFF70CFD824605E0FFF708FDA0EB0A0129
:101A800059454CD8286A8007F6D41FB1E86920F080
:101A90008050E861E06988B36968C1F38101022977
:101AA00044D00228C6F8608004D0FFF7EFFC04465B
:101AB00038E034E0FFF7EAFC074604E0FFF7E6FC15
:101AC000C01B02282BD828688001F7D4206AB0F503
:101AD000803F05D16868A16820F400300843686041
:101AE000D4E908010843696821F474110843686067
:101AF000C6F86090FFF7CAFC044606E025E000BF88
:101B0000FFF7C4FC001B022809D828688001F7D51C
:101B10001BE000BFFFF7BAFC001B022802D903201C
:101B2000BDE8F88F28688001F4D40EE00128F7D0D2
:101B30006868226A00F48031914204D1616A00F43D
:101B40007010884201D00120EAE70020E8E7000099
:101B5000001002400000424280044242C80F0020B0
:101B6000007000407047704710B590F83C20012A83
:101B700022D0012280F83C20CA688C6822F440728E
:101B800022434C6822F4806222430C6822F40062F3
:101B900022430C6922F4805222434C6922F4005201
:101BA0002243C969002322F480420A4301684A643F
:101BB00080F83C30002010BD022010BD70B590F8B8
:101BC0003C20012A26D0012480F83C40022280F8E3
:101BD0003D2003685A689D6822F070060A68324307
:101BE0005A600D4B02689A4208D0B2F1804F05D07E
:101BF0000A4B9A4202D00A4B9A4204D1496825F016
:101C000080031943916080F83D40002180F83C102A
:101C1000084670BD022070BD002C01400004004049
:101C20000008004010B50446022084F83D002068FA
:101C3000016A41F21112114207D1016A9210114258
:101C400003D1016821F001010160204600F046F84F
:101C5000002084F8460084F83E0084F83F0084F8B1
:101C6000400084F8410084F8420084F8430084F87E
:101C7000440084F8450084F83D0084F83C0010BD21
:101C800010B5040003D094F83D0010B107E0012026
:101C900010BD002084F83C00204600F041F80220EE
:101CA00084F83D00211D206802F050FA012084F8DC
:101CB000460084F83E0084F83F0084F8400084F831
:101CC000410084F8420084F8430084F8440084F81A
:101CD000450084F83D00002010BD00000D4A016859
:101CE0000D48914204D1816921F4006181617047FE
:101CF000B1F1804F09D0094A9142F8D1C16921F070
:101D00000201C1611D20FFF751BCC16921F0010131
:101D1000C1617047002C01400010024000040040E7
:101D200008B5174A01681748914207D1816941F403
:101D300000618161806900F400601EE0B1F1804FB4
:101D400014D0114A914219D1C16941F00201C16117
:101D5000C069002200F00200009005211D20FFF75D
:101D600043FCBDE808401D20FFF731BCC16941F0CC
:101D70000101C161C06900F00100009008BD0000D0
:101D8000002C0140001002400004004090F83D107B
:101D9000012901D001207047022180F83D1001681F
:101DA000CA6842F00102CA6000680B49884208D044
:101DB000B0F1804F05D00949884202D008498842D5
:101DC00004D1816801F00701062903D0016841F0C0
:101DD0000101016000207047002C01400004004018
:101DE0000008004070B5044690F83C00002501282A
:101DF00017D0012684F83C60022084F83D0020685A
:101E0000826822F0770222F47F42826008685028BC
:101E100038D00DDC20284FD005DC90B3102811D12C
:101E20004AE0022070BD302846D040280AD13BE06D
:101E300060282FD070280DD0B0F5805F03D0B0F5AA
:101E4000005F12D0012584F83D60002084F83C003A
:101E5000284670BDCB68D1E90121206802F0B9F9AC
:101E60002068816841F0770109E0CB68D1E9012160
:101E7000206802F0AEF92068816841F480418160F9
:101E8000E1E719E0CA684968206802F057FA502172
:101E9000206806E0CA684968206802F060FA60219C
:101EA000206802F0A0F9CEE7CA684968206802F00D
:101EB00045FA40212068F4E7226801461046F0E721
:101EC000704770B50446006801694FF00005C943CA
:101ED000890715D4C168C943890711D4E91E016176
:101EE00001202077206880698007204602D0FFF714
:101EF000E7FF04E000F0EEF8204600F080F92577D7
:101F000020680169C943490717D4C168C943490713
:101F100013D46FF0040101610220207720688069EA
:101F200010F4407F204602D0FFF7CAFF04E000F023
:101F3000D1F8204600F063F9257720680169C9438C
:101F4000090716D4C168C943090712D46FF0080104
:101F50000161042020772068C0698007204602D0F4
:101F6000FFF7AEFF04E000F0B5F8204600F047F9B7
:101F7000257720680169C943C90617D4C168C943D8
:101F8000C90613D46FF01001016108202077206882
:101F9000C06910F4407F204602D0FFF791FF04E0B3
:101FA00000F098F8204600F02AF9257720680169AA
:101FB000C943C90708D1C168C943C90704D1891EEB
:101FC0000161204600F0A2F920680169C9430906B1
:101FD00009D4C168C943090605D46FF080010161C5
:101FE0002046FFF7BFFD20680169C943490609D4AF
:101FF000C168C943490605D46FF04001016120461C
:1020000000F09AF920680169C94389060BD4C168B8
:10201000C943890607D46FF0200101612046BDE85D
:102020007040FFF7A0BD70BD10B586B000210091D3
:10203000019102910391224B026822490224224815
:102040009A4210D18A6942F004028A618969039434
:1020500001F0040104918115CDE900146946FFF7F0
:102060001BF906B010BDB2F1804FFAD18A6942F077
:1020700004028A618A6902F0040204928A6942F0C9
:1020800008028A618969039401F00801049148F209
:102090000401CDE900146946FFF7FEF80820CDE9F8
:1020A0000004694609480394FFF7F6F808484168B8
:1020B00021F4407141F0E06141F480714160D0E76A
:1020C000002C01400010024000080140000C0140BB
:1020D00000000140704770B5044690F83C000026AF
:1020E0000D4601280FD0012084F83C006AB1042A73
:1020F0001DD0082A2FD00C2A3FD00126002084F8BA
:102100003C00304670BD022070BD206802F074F8BB
:102110002068816941F0080181612068816921F0AE
:1021200004018161206881692A69114311E02068F6
:1021300002F08AF82068816941F4006181612068B9
:10214000816921F480618161206881692A6941EA9D
:1021500002218161D2E7206802F0A2F82068C169FB
:1021600041F00801C1612068C16921F00401C16129
:102170002068C1692A69114311E0206802F0BCF8A7
:102180002068C16941F40061C1612068C16921F41E
:102190008061C1612068C1692A6941EA0221C16187
:1021A000ACE710B5040003D094F83D0010B107E08F
:1021B000012010BD002084F83C00204600F01EF8ED
:1021C000022084F83D00211D206801F0BFFF01209E
:1021D00084F8460084F83E0084F83F0084F840000C
:1021E00084F8410084F8420084F8430084F84400F5
:1021F00084F8450084F83D00002010BD704770470A
:1022000010B50446022249B104290ED0082913D082
:1022100094F84100012816D0012010BD94F83E002A
:102220000128F9D184F83E200FE094F83F000128FE
:10223000F2D184F83F2008E094F840000128EBD167
:1022400084F8402001E084F841200122206801F058
:10225000B3FF0F492068884203D1426C42F4004228
:1022600042642068884208D0B0F1804F05D0094907
:10227000884202D00849884204D1816801F00701F0
:10228000062903D0016841F001010160002010BD62
:10229000002C0140000400400008004030B5044616
:1022A0000D460068002201F087FF174B41F2111123
:1022B00020688A10984209D1036A0B4206D1036A4A
:1022C000134203D1436C23F4004343642068036A40
:1022D0000B4206D1016A114203D1016821F00101CC
:1022E000016001203DB1042D08D0082D09D084F8EB
:1022F0004100002030BD84F83E00FAE784F83F003A
:10230000F7E784F84000F4E7002C014010B50446DC
:1023100000680749884201D1FFF7BEF805492068E7
:10232000884203D1BDE8104001F0CCB910BD0000D7
:102330000008004000040040704770B5040004D05D
:1023400094F84100002510B106E0012070BD84F82A
:102350004050204600F024F8242084F841002068F2
:10236000C16821F40051C160204602F00BF82068DA
:10237000016921F4904101612068416921F02A013D
:1023800041612068C16841F40051C160656420204A
:1023900084F8410084F842006563002070BD0000AD
:1023A00030B585B000240094019402940394006831
:1023B0001449884224D11448816941F480418161E3
:1023C000816901F480410491816941F004018161D6
:1023D00080690E4D00F0040004904FF400700090EE
:1023E000022001900320039069462846FEF754FF1F
:1023F0002815CDE90004694628460294FEF74CFFF3
:1024000005B030BD00380140001002400008014016
:10241000FEE700F0DABD0000114C00BF00F08EFBBB
:10242000FEF726F8FEF7E2FC207801F057F900F0FD
:1024300011FFA078E070FEF7DBFDA070E17881422B
:102440000AD048B1884207D000F052FFFDF730FFB4
:1024500001F0A8F901F0F6F8322002F0BDFEDDE748
:102460005010002008B500780024012808D0022868
:1024700006D0032804D0042802D005281CD062E02E
:1024800000F05CFB082337A20221042000F0CBFE01
:10249000082338A227212C2000F0C5FE002140236C
:1024A00080220846009400F0BFFC00F0D3FE4FF4F9
:1024B0007A7002F091FE46E000F040FB06232FA266
:1024C0000921132000F0AFFE062330A2112128209D
:1024D00000F0A9FE192106232FA2084600F0A3FE52
:1024E000062331A224212B2000F09DFE062321A2E9
:1024F0002C21312000F097FE06232DA23421132039
:1025000000F091FE0021402380220846009400F054
:102510008BFC002306221946184600F055FB0023C9
:10252000062219467F2000F04FFB0023062240219F
:10253000184600F049FB0023062240217F2000F0CE
:1025400043FB00F087FE1E4CFEF752FD462805D1E6
:10255000206802F02BFF002002F064FE322002F01F
:102560003BFEF1E747616D6520496D706C656D65F7
:102570006E743A005A534A54460000002D2D2D2DFA
:102580002D2D2D2D2D2D2D2D2D2D2D0046726565DA
:1025900052544F530000000047616D6520436F6E39
:1025A000736F6C6500000000417574686F723A00CB
:1025B0002D2D2D2D2D2D2D2D2D2D2D2D2D2D0000A5
:1025C000A00F002010B5134C6079E17988421FD12B
:1025D000A079217A88421BD12079401C2071A089E2
:1025E000401CA081FDF7ECFD3F2190FBF1F201FBC7
:1025F0001200022101EB4000E071FDF7E1FD19211D
:1026000090FBF1F201FB12000B2101EB4000207264
:1026100010BD0000A810002010B506484FF400536C
:1026200009B1002200E001221946FEF72AFF00202E
:1026300010BD00000010014070B586B000241148A4
:102640000094019402940394816941F01001816126
:1026500080690D4E00F010004FF4005504902246A2
:1026600029463046FEF70DFF01200095CDE9010413
:102670000220039069463046FEF70EFE06B00020A9
:1026800070BD00000010024000100140FFF7D4FFB1
:1026900000F09BFC4FF4FA7401210846FFF7BCFFE1
:1026A000204602F099FD00210120FFF7B5FF2046EA
:1026B00002F092FDF0E700002DE9F04711484FF4D9
:1026C0002476012485888046A0F1300904EB44017A
:1026D00008EB410738F81120788802EB420309EB38
:1026E0004302322132F8100000F062FFB888B5FBD7
:1026F000F0F002F071FD641CA4B2B442E6D9BDE86A
:10270000F0870000300000203EB5FFF782FE184A37
:102710000021184801F058FF174C18250023E060ED
:1027200016480095A0F17801CDE901101E2214A1F0
:10273000164803F030FA206015480095A0F1C80152
:10274000CDE901100023322212A1154803F023FA2B
:10275000606014480095A0F1C801CDE90110002384
:10276000322211A1144803F016FAA0603EBD000009
:10277000585F0008A1400008980F0020AC1100200D
:102780004C69676874546573740000008D260008F6
:10279000D0120020436F6C6F725465737400000098
:1027A00049040008F4130020486F6D6550616765A7
:1027B0004D656E7500000000192400082DE9F041F8
:1027C00086B000242D4800940194029403948169FA
:1027D00041F010018161816901F01001049181696A
:1027E00041F020018161816901F02001049181693A
:1027F00041F004018161816901F004010491816962
:1028000041F00801816180691D4F00F008004FF41C
:1028100000550490002229463846FEF732FEDFF8C4
:1028200064804FF44076002231464046FEF729FE90
:102830000220CDE902400095012569460195384600
:10284000FEF72AFDF0208DE8310069460E48FEF7BC
:1028500023FD4FF203008DE8310069464046FEF744
:102860001BFD11200096CDE9010403200390694669
:102870004046FEF711FD06B0BDE8F08100100240B1
:1028800000100140000C01400008014010B596B056
:1028900000240F9410941194129413941C2108A8EE
:1028A0001494FDF7B8FC20216846FDF7B4FC2A48D3
:1028B000284901604721C0E9011440F2E731C0E92D
:1028C00003148021C0E90541FFF7DAF908B1FEF7EA
:1028D00091F84FF480500F900FA91F48FFF782FA2C
:1028E00008B1FEF787F81C48FFF75BFC08B1FEF75C
:1028F00081F8139413A918481494FFF75FF908B1ED
:10290000FEF778F86020089040F2F310CDE9090452
:102910000B940C940D94002208A90F480E94FFF715
:10292000DAFB08B1FEF766F800944FF40050CDE9E9
:102930000440029401940394694607480794FFF702
:1029400013F908B1FEF756F80348FFF76DFB16B010
:1029500010BD0000002C01400415002010B58EB001
:1029600000240794089409940A940B941C21684647
:102970000C94FDF750FC27484FF08041016040F275
:102980006711C0E9011440F2CF71C0E9031480213E
:102990008161FFF775F908B1FEF72CF84FF480500C
:1029A000079007A91B48FFF71DFA08B1FEF722F8A8
:1029B0001848FFF7F6FB08B1FEF71CF80B940BA9BB
:1029C00014480C94FFF7FAF808B1FEF713F86020EA
:1029D000CDE900040294002269460E480494FFF7F2
:1029E0007AFB08B1FEF706F8042269460948FFF7AA
:1029F00072FB08B1FDF7FEFF082269460548FFF7A4
:102A00006AFB08B1FDF7F6FF0248FFF70DFB0EB0B9
:102A100010BD00004C15002010B586B000241748EA
:102A20000094019402940394049413490594016062
:102A300041F61F41C0E9011440F2F311C0E903144B
:102A40008461FFF71DF908B1FDF7D4FF4FF4805002
:102A5000009069460948FFF7C5F908B1FDF7CAFFBC
:102A6000049404A905480594FFF7A8F8002801D0AC
:102A7000FDF7C0FF06B010BD000400409415002013
:102A80000C4810B50A4901604FF4E1314160002162
:102A900081600C22C160C0E904128161C161FFF74D
:102AA0004CFC002803D0BDE81040FDF7A3BF10BDCB
:102AB00000380140DC150020FEE7FEE770B5002578
:102AC0001D4C30E061792844A1EB4000A179801CC5
:102AD00040B249B200F090F9A07861792844A1EBA6
:102AE0004000A179801C491C40B249B200F084F931
:102AF000A07861792844404201EB4000A179401C54
:102B000040B249B200F078F9A07861792844404297
:102B100001EB4000A179401C491C40B249B200F0D1
:102B20006BF96D1CEDB2A078C0F10501A942C9DCBA
:102B3000C0B2401EA07070BDA810002010B50021CA
:102B4000074C0A46002004EBC1131A54401CC0B2C3
:102B50008028FAD3491CC9B20829F3D310BD00005C
:102B600044470020F0B57F282AD83F2928D8841868
:102B7000802C02D9C0F18002D2B2CC18402C02D9EC
:102B8000C1F14003DBB20126DFF838E087180B44BF
:102B900014E001F0070206FA02F5CA0804460EEB3B
:102BA000C21207E012F804C02CEA050C02F804C0B7
:102BB000641CE4B2A742F5D8491CC9B28B42E8D8DC
:102BC000F0BD0000444700202DE9FF4F87B080464C
:102BD000C2F10100144603900E46081941B24FFAA3
:102BE00088F00025814600F007F9301B41B24846C5
:102BF00000F002F977B208EB040040B2394600F069
:102C0000FBF8A8EB0400394640B200F0F5F80A984A
:102C1000002875D0674206E0F01941B2484600F03E
:102C2000EBF87F1C3FB2A742F6DB69E06D1C03980E
:102C30002DB2002802DA00EB450004E0641E24B245
:102C4000291B00EB4100401C00B20390301941B237
:102C500008EB050040B281460291069000F0CCF8E6
:102C6000701941B208EB040040B28346059100F0B0
:102C7000C3F8301B47B2A8EB050040B201903946BB
:102C8000009000F0B9F8701B41B2A8EB040040B20C
:102C90008246049100F0B0F83946484600F0ACF89E
:102CA0005846049900F0A8F80299009800F0A4F89A
:102CB0005046059900F0A0F80A9808B3604207B2A0
:102CC0000BE0F01941B28946069800F095F84946A4
:102CD000019800F091F87F1C3FB2A742F1DB6842F7
:102CE00007B20BE0F01941B28946504600F084F873
:102CF0004946584600F080F87F1C3FB2AF42F1DBF6
:102D0000A54293DB0BB0BDE8F08F2DE9F04F1D46D7
:102D10004FF0000914464E46A94211D1A04202DDEF
:102D200002462046144605464EB205E0314668B2DA
:102D300000F062F86D1C2DB2A542F7DDBDE8F08F02
:102D4000A0420FD1A94201DD0D4619460C4646B2FC
:102D500005E061B2304600F04FF8641C24B2AC428A
:102D6000F7DDEBE704DD024620460D461446194622
:102D7000A94203DD49426D424FF001096A1A231A44
:102D80009A4206DD02460846114622462C46154662
:102D900001266A1A231AD51A4FEA450A4FEA420B4E
:102DA000C3EB420805460F461CE0684241B203E00F
:102DB000784241B203E069B278B201E079B268B218
:102DC00000F01AF8A542B9DA6D1C2DB2B8F1000F67
:102DD00002DA08EB0B0003E07F1C3FB208EB0A00AD
:102DE0000FFA80F8B9F1000F02D0002EE0D0DCE736
:102DF000002EE3D0DFE7000010B5802811D2402973
:102E00000FD2CA1701EB5272D410064B22F0070200
:102E100003EBC41318448A1A0378012191400B4331
:102E2000037010BD444700202DE9F04F884604464A
:102E3000099908EB030586182746A9BB681E4FFAB7
:102E400088FB4FFA80F90AE078B259468246FFF7CC
:102E5000D3FF49465046FFF7CFFF7F1CFFB2BE426B
:102E6000F2D847464FFA84F8761E74B20AE079B277
:102E70000E464046FFF7C0FF20463146FFF7BCFF35
:102E80007F1CFFB2BD42F2D8BDE8F08F44464FFA36
:102E900087F905E061B24846FFF7AEFF641CE4B273
:102EA000A542F7D87F1CFFB2BE42EFD8ECE72DE970
:102EB000F04F88460446099908EB03058618274613
:102EC000A9BB681E4FFA88FB4FFA80F90AE078B276
:102ED00059468246FFF790FF49465046FFF78CFF60
:102EE0007F1C3FB2BE42F2DC47464FFA84F8761EA2
:102EF00074B20AE079B20E464046FFF77DFF2046E5
:102F00003146FFF779FF7F1C3FB2BD42F2DCBDE8DE
:102F1000F08F44464FFA87F905E061B24846FFF763
:102F20006BFF641C24B2A542F7DC7F1C3FB2BE429B
:102F3000EFDCECE710B500204FF47A720021491C59
:102F40009142FCD3401C9042F8D3012000F096F946
:102F5000BDE81040012000F099B970B50024064684
:102F6000802525FA04F0304000D0012000F08EF9D1
:102F7000012000F083F9002000F080F9641CE4B225
:102F8000082CEED3012000F079F9BDE87040002054
:102F900000F074B910B5012000F078F9012000F0BC
:102FA0006DF9002000F072F9BDE81040002000F03B
:102FB00065B910B5002000F069F9012000F05EF954
:102FC000BDE81040012000F061B910B5FFF7B2FF75
:102FD000AE2000F063F9D52000F060F9802000F009
:102FE0005DF9A82000F05AF93F2000F057F9D320EE
:102FF00000F054F9002000F051F9402000F04EF9A3
:10300000A12000F04BF9C82000F048F9DA2000F0C8
:1030100045F9122000F042F9812000F03FF9CF205D
:1030200000F03CF9D92000F039F9F12000F036F930
:10303000DB2000F033F9302000F030F9A42000F05C
:103040002DF9A62000F02AF98D2000F027F9142090
:1030500000F024F9BDE81040AF2000F01FB902468F
:10306000012000E05043491EFCD27047F0B57F2894
:103070002AD83F2928D88418802C02D9C0F1800290
:10308000D2B2CC18402C02D9C1F14003DBB20126E8
:10309000DFF838E087180B4414E001F0070206FA65
:1030A00002F5CA0804460EEBC21207E012F804C08B
:1030B0008CEA050C02F804C0641CE4B2A742F5D8FF
:1030C000491CC9B28B42E8D8F0BD0000444700203B
:1030D00010B50C4640F0B00000F0E0F8102040EAD7
:1030E000141000F0DBF804F00F00BDE8104000F011
:1030F000D5B8000008B5082B0DD0062B0AD10A4B15
:1031000002EB420203EB4202C03A0092082306227D
:1031100000F00EF808BD054B03EB0212A2F5007299
:10312000102300920822F3E796650008A65F0008C6
:103130002DE9FC4F1F4615460C4606467F284AD807
:103140003F2C48D8FFF70EFD781EC117002300EB77
:1031500051700121DFF884B004F0070901EBE007AA
:1031600037E0002031E031187F2930D803EBD40A52
:10317000BAF1070F2FD80BEBCA1E03FB05F21EF89E
:1031800001C00192DDF82C808044CDF8008012F857
:10319000082002FA09F24CEA020C0AF101020EF8C8
:1031A00001C0072A0FD80EEB0108DDE900C198F82D
:1031B000802011F80CC0C9F108012CFA01FC42EA88
:1031C0000C0288F88020401CC0B2A842CBD35B1C04
:1031D000DBB29F42C5DCBDE8FC8F00004447002005
:1031E0002DE9F04700241D4690468A4681460A276D
:1031F000089E14E0291B0A20491EFFF730FFB8FB88
:10320000F0F0B0FBF7F107FB110204FB0690C0B22F
:10321000334651463032FFF76DFF641CE4B2AC42D6
:10322000E8D3BDE8F0872DE9F0411E4615468846F3
:103230000746002408E004FB0670C0B2334641464E
:10324000FFF758FF641CE4B22A5D002AF3D1BDE801
:10325000F081000070B5084D002400212046FFF7E2
:1032600037FF05EBC410802100F029F8641CE4B29C
:10327000082CF2D370BD00004447002002464FF4F2
:1032800080710148FEF7FDB8000C014002464FF482
:1032900000710148FEF7F5B8000C014010B5044676
:1032A000FFF778FE7820FFF758FE0020FFF755FE65
:1032B0002046FFF752FEBDE81040FFF77ABE70B51A
:1032C0000D460646FFF766FE7820FFF746FE4020D3
:1032D000FFF743FE002404E0305DFFF73EFE641C70
:1032E000E4B2AC42F8D3BDE87040FFF762BE000024
:1032F0002DE9FC414B4CDFF830814C4EA07845283D
:1033000020D1207849251827012833D002284CD015
:10331000032861D0042870D005285BD10523002242
:103320004146306801F0C6FF98F80C00032875D0BC
:10333000022807D0CDE90076002332223CA1404884
:1033400002F0FCFBA078462844D12078052841D122
:10335000052300223449306801F0ACFF98F80C00D6
:10336000022837D1306802F0A3F8BDE8FC41002004
:1033700000F0DEB8344E052300223249306801F0F7
:1033800099FF3048007B032804D000233C222FA162
:10339000324819E0FFF7D2FBFFF75CFF306802F01C
:1033A00005F8002002F084F812E02E4E05230022DA
:1033B0002B49306801F07EFF2948007B0328E9D0C3
:1033C00000232C483C2228A1CDE9007602F0B6FB70
:1033D000E570A570BDE8FC81284E05230022264932
:1033E000306801F067FF2448007B0328D2D0002317
:1033F000322223A12648E7E7FFE7274E05230022D4
:103400002449306801F056FF2248007B0328C1D0D0
:103410000023302221A12548D6E7FFE7306801F0DC
:10342000C5FF8FE750100020E0140020B80F0020E7
:10343000506C61794D757369635461736B00000062
:103440003936000850140020A80F002044696E6F20
:1034500047616D655461736B0000000079050008D9
:1034600074140020AC0F00205374617257617254C1
:1034700061736B00C939000898140020B00F002058
:10348000466C61707079426972645461736B0000BC
:103490003D0A0008BC140020B40F00204772656587
:1034A0006479536E616B655461736B00151100088C
:1034B00010B50F480021012201704170C2811E2306
:1034C0008370C1700171042343714FF4C073438250
:1034D00081828023C3820824048381714383C27163
:1034E0001C22027241728172C4728183017310BD09
:1034F000581000200D480121052201700021417063
:103500008170C1708182C182027118224271817101
:10351000C171017241720A228272C1720C2202735D
:1035200042738273C273017441747047901000201B
:10353000010004484FF00001006801D0FEF760BEB2
:10354000FEF7ACBE4810002070B58CB01C21684658
:10355000FCF761FE4FF480700225CDE907050024D9
:1035600007A91048CDE90945FDF796FE0F4E0E4814
:103570004722316815C140F2E732E1E80224802297
:1035800061E8044200F0E2FD60200090049440F203
:10359000F310CDE90105002269463068FEF79BFD76
:1035A0000CB070BD00080140002C01404810002004
:1035B0002DE9F04188B0884606461C216846FCF794
:1035C0002AFE1A4C00212068FEF768FE2068FEF7EC
:1035D00029FB20681649002501604721C0E9011533
:1035E000144F97FBF6F1491EC0E903158021C0E98D
:1035F0000551FEF745FB602000900220029097FBEA
:10360000F6F0401E00FB08F0642190FBF1F00495F9
:103610000190002269462068FEF75DFD00212068C8
:10362000FEF7EEFD08B0BDE8F08100004810002074
:10363000002C014040420F00FFF786FFFFF73CF8E7
:10364000FCE7000030B51E49012408468A780523AE
:103650000078422A0DD00425432A0FD0422A13D0E5
:10366000432A15D0422A18D0412A1BD0402A1DD007
:1036700021E0042808D24870401C03E0012809D941
:103680004870401E087016E0042814D1487007E006
:10369000012810D84C700D7030BD04280BD14D702E
:1036A0000C7030BD052806D2487007E0052802D10D
:1036B000487808704B7008780528F2D90B7030BD37
:1036C0005010002010B5FDF751FC002803D002492E
:1036D00048700120087010BD4C10002010B5012862
:1036E00015D002281ED0032827D0042830D0052862
:1036F00039D108231CA202211846FFF794FD12239A
:1037000064222C210E20BDE81040FFF7AFBC082337
:1037100018A202211846FFF786FD14231A461946FF
:103720000920F0E7082316A202211846FFF77BFDC7
:1037300014231A4619462720E5E7082313A202217D
:103740001846FFF770FD14231A4619464520DAE79C
:10375000082311A202211846FFF765FD14231A461B
:1037600019466320CFE710BD4D7573696320202093
:103770002020200044696E6F2047616D6520200085
:103780005374617220576172202020004269726474
:103790002120202020202000477265656479536E27
:1037A000616B65007CB5124CE178A07881421DD038
:1037B00049281BD120780025211D182246260128E2
:1037C00007D0022805D0032803D0042801D00528FB
:1037D0000CD1CDE90021064B322206A1084802F0A7
:1037E000ADF9002001F064FE6560A6707CBD0000AC
:1037F00050100020496E666F5461736B000000002A
:1038000065240008144810B5027900F10E0109E0A2
:1038100001EB420313F8024D01F812405C78521E8E
:10382000DC70D2B2002AF3D142797E2A01D9022279
:1038300002E0022A01D27E22427182793D2A01D918
:103840000B2202E00B2A01D23D22827142790A70DA
:103850008079487010BD0000A810002030B51948CC
:10386000A0F10E01837804789D1C4A79AC4209D0FE
:10387000022C01D17E2B05D09D1EAC4211D07E2C96
:1038800002D003E0921C0DE0022B0AD04378C278EC
:103890000C48941C0E38A342807911D00B2B03D016
:1038A00004E0921E4A7130BD3D2A09D0941EA34205
:1038B00003D03D2BF7D10B2AF5D1801E887130BD86
:1038C000801CFBE7B61000202DE9F0410024154FC5
:1038D00023E0144E0E3606EB440595F9011095F9D8
:1038E0000000FFF789FA6878401C41B295F90000A2
:1038F000FFF782FA16F8140095F90110401E40B245
:10390000FFF77AFA6878401C41B216F81400401E9E
:1039100040B2FFF771FA641CE4B238798442D8D31C
:10392000BDE8F081A8100020184810B400F10E0185
:1039300044784B78CA780146402C89790CD0412CC8
:103940000FD000F10E01422C0A788B78014649799C
:103950000ED0432C11D016E0921C934213D0891E36
:1039600003E0921E93420ED0891C817110BC7047F7
:103970009B1E9A4207D0891C03E09B1C9A4202D0EE
:10398000891E4171F2E710BCFFF768BFA810002044
:1039900008B5FFF7D3F809480021009040238022A2
:1039A0000846FFF7C5FB062305A238215C20FFF778
:1039B0003AFCBDE80840FFF74DBC000077710008F5
:1039C00056312E302E300000FE4F08B5386801F019
:1039D0006FFDFFF78FFDFFF7DBFFFB4C4526A67061
:1039E000FDF706FB60704FF0060A4FF0020B002552
:1039F0004FF00109B04620E0A070FDF7F9FA6070C1
:103A0000FDF7F6FA492804D0FDF7F2FA50280BD05A
:103A100010E0386801F0CAFC002001F049FD84F88C
:103A20000180FFF7B5FF05E0386801F0BFFC00201A
:103A300001F0F8FB322001F0CFFB60784528DBD1A4
:103A4000A1784529D8D05646FFF778F8E0780128C4
:103A50007ED0E08A0521C0F1850040B2FFF7CCF9A5
:103A6000E08A0721C0F1880040B2FFF7C5F9E08A7B
:103A70003821C0F18A0040B2FFF7BEF9E08A312157
:103A8000C0F18E0040B2FFF7B7F9E08A1821C0F10B
:103A9000980040B2FFF7B0F9E08A2B21C0F19900FD
:103AA00040B2FFF7A9F9E08A1E21C0F1B20040B28E
:103AB000FFF7A2F9E08A1021C0F1B70040B2FFF78A
:103AC0009BF9E08A1C21C0F1C60040B2FFF794F9CF
:103AD000E08A2421C0F1CE0040B2FFF78DF9E08AE0
:103AE0001921C0F1C60040B2FFF786F9E08A3E21F5
:103AF000C0F1D00040B2FFF77FF9E08A3921C0F170
:103B0000D80040B2FFF778F9E08A2B21C0F1E40039
:103B100040B2FFF771F9E08A0B21C0F1EB0040B22F
:103B2000FFF76AF9E08A3421C0F1F50040B2FFF7EF
:103B300063F9E08A0B21C0F5857040B2FFF75CF9AC
:103B4000E08A0621C0F58B7040B2FFF755F900E01E
:103B50005AE0A07D3821A0F22310404240B2FFF786
:103B60004BF9E08A0C21C0F59D7040B2FFF744F993
:103B7000A07D2C21A0F23D10404240B2FFF73CF95D
:103B8000E08A1921C0F5A37040B2FFF735F9E08A49
:103B90002021C0F5A47040B2FFF72EF9E08A3C2145
:103BA000C0F5A77040B2FFF727F9A07D1221A0F25F
:103BB0005710404240B2FFF71FF9E08A3821C0F5A4
:103BC000B57040B2FFF718F9E08A801C80B2E0823D
:103BD000FE2800D9E58206237CA201211C20FFF7E4
:103BE00022FB0823202201212E200095FFF71CF93B
:103BF0002079052855D0042858D003285BD0022806
:103C00005ED0012861D068E07148009028233322FB
:103C10000A210120FFF78CFA06236EA21821362014
:103C2000FFF701FB00960423628A20216820FFF73A
:103C3000D7FA06236AA22C213620FFF7F4FA009661
:103C40000423A28A34216820FFF7CAFAFFF702FB97
:103C5000FDF7CEF96070452804D049280ED05028D1
:103C600015D01AE0A08A618A884200D96082FFF7E5
:103C700041FCFEF763FFFFF7EDFA0EE0386801F054
:103C800095FB002001F014FC84F8018005E0386801
:103C900001F08CFB002001F0C5FA322001F09CFA03
:103CA000D2E606231E22CDF8009012E00623182249
:103CB000CDF800900DE006231222CDF8009008E028
:103CC00006230C22CDF8009003E006231A46CDF817
:103CD000009002212F20FFF7A7F8062341A23621EA
:103CE0001C20FFF7A0FA00960323A28A3621402069
:103CF000FFF776FA06233DA236216E20FFF793FAEE
:103D000000960123227836217A20FFF769FA00967F
:103D10000223A27A00217420FFF762FA607A012858
:103D200066D1207C10B12A2803D006E0217BA17344
:103D300003E0217BE17384F811B02178042910D2CB
:103D4000801DC0B22074A17BC0F16200C91CC9B241
:103D5000C0B201230222FEF737FF207C5F2800D388
:103D600025742078032824D9207C0123801DC0B22B
:103D70002074A17BC0F16200C91CC9B2C0B202228A
:103D8000FEF722FF607C60B1E17BC0F16200C91CDC
:103D9000C9B2C0B201230322FEF716FF607C801D6A
:103DA0006074207C5F2800D32574607C5F2800D37A
:103DB0006574207CC0F16200142824DCA07B61794A
:103DC000821C16E0A00F00209010002048503A00FE
:103DD00077750008486967682053636F72653A0019
:103DE0004E6F772053636F72653A00004C3A0000C3
:103DF0001BE08A4207D9801E1031884203DA2079FD
:103E0000401E20712574607CC0F1620014280CDC17
:103E1000E17B6079CA1C824207D91030C91E8142F9
:103E200003DA2079401E20716574607A10B1012890
:103E30006AD087E0E07A0C2801D2401CE072C0B260
:103E400005280ED0062811D0072814D0082817D02E
:103E500009281AD00A281DD00B2820D00C282BD0D6
:103E600070E000230222217B802069E000230322EE
:103E7000217B7B2064E000230422217B76205FE00D
:103E800000230622217B72205AE000230822217B96
:103E90006E2055E000230A22217B6A2050E0002397
:103EA0000B22217B6620FEF78FFE207B0123C01CA6
:103EB000C1B20222662043E000230C22217B622053
:103EC000FEF782FE207B0123C01CC1B203226420C6
:103ED000FEF77AFE84F809902078012808D002289D
:103EE00008D0032808D0042808D0052808D009E005
:103EF0000A2006E00E2004E0142002E01E2000E06C
:103F00002E20A072E5721DE0207B0C2802D9617B77
:103F1000814201D833283ED360732178042901D22D
:103F2000401A00E0C01E2073C1B200230C226220A0
:103F3000FEF74AFE207B0123C01CC1B2032264208D
:103F4000FEF742FEFDF754F860704528E0792FD067
:103F500000B3E079237A00F11401CAB21030C0B284
:103F60001946FEF7D2FEE079217A00F1140C491CC3
:103F7000CBB210300CF0FF02C9B2C0B2FEF7C5FEE2
:103F8000E0790830C0B2E071792800D9E571607A33
:103F9000012815D029E0617B814201D30C28D1D8BA
:103FA00060732178042901D20844BCE7C01CBAE739
:103FB0000028CED184F807B06079C01D2072C8E710
:103FC000E07910305C2810D9207B227AA0F10C0116
:103FD0008A420ADD0C30521C824206D2A07A401E70
:103FE000A072A08A401CA082E571A079032812D299
:103FF0006178402902D0412906D00CE0401CA07114
:10400000607940B1001F05E0401CA0716079302844
:1040100001D2001D6071A079022800D9A5711F4846
:10402000009010231A4661790420FFF781F8A08AD6
:10403000142807D03E2808D0A22808D0B0F5C97FA0
:1040400007D008E084F800B005E0032002E0042077
:1040500000E005202070A07A00B96572207908B9C7
:1040600084F80390FFF7F6F8322001F0B5F8607895
:10407000492809D050287FF413AE386801F096F92A
:10408000002001F0CFF8DFE4386801F08FF900205C
:1040900001F00EFA84F80180D6E4000057710008A0
:1040A000322001F099F8FBE710B5502080F3118819
:1040B000BFF34F8FBFF36F8F01F0ACFD18B1044910
:1040C0004FF080500860002080F3118810BD000080
:1040D00004ED00E030B58FB028216846FCF79BF86E
:1040E00014210AA8FCF797F801210804CDE9001073
:1040F0000024029402250491CDE907504FF4E0100A
:1041000009906846FDF79EFB08B172B6FEE70F20E6
:10411000CDE90A054FF48060CDE90C4002210AA8E0
:104120000E94FDF793FA002801D072B6FEE70FB0A7
:1041300030BD70470148FDF7C4BE00009415002053
:104140000148FDF7BEBE000024160020F0B502684D
:10415000164B174C174D4FF08047984205D0B84288
:1041600003D0A04201D0A84203D122F070064A68D1
:104170003243984205D0B84203D0A04201D0A842B1
:1041800003D122F44074CA6822434C6922F08002B1
:10419000224302608A68C2620A688262984201D140
:1041A0000969016301214161F0BD0000002C01405B
:1041B000000400400008004010B501F01F03012179
:1041C000046A99408C430462016A9A401143016277
:1041D00010BD10B5846842EA032224F47F440A43E8
:1041E0002243826010BD826822F070020A4342F0CE
:1041F000070181607047000030B5036A026A22F04F
:10420000010202624268846924F073050C682C4341
:1042100023F002058B682B430A4DA8420BD123F0F3
:104220000805CB6822F440722B434D6923F0040348
:1042300015438A692A434260846149684163036285
:1042400030BD0000002C014030B5026A036A23F043
:1042500010030362436884690D6824F4E64444EA69
:1042600005248D6822F0200242EA05120B4DA84277
:104270000ED1CD6822F0800242EA05124D6923F486
:10428000406343EA85038D6922F0400243EA8503D7
:104290004360846149688163026230BD002C014043
:1042A00030B5036A026A22F4807202624268C4690D
:1042B00023F4007324F073050C682C438D6843EAE3
:1042C00005230C4DA8420ED1CD6823F4006343EAC8
:1042D00005234D6922F4405242EA05128D6923F408
:1042E000806342EA05124260C4614968C1630362A7
:1042F00030BD0000002C014030B5046A026A22F48F
:10430000805202624268C3690D6823F4E64343EABF
:1043100005238D6824F4005444EA0534064DA84270
:1043200004D14D6922F4804242EA85124260C361A1
:1043300049680164046230BD002C014010B5036A75
:10434000046A24F001040462846924F0F00444EA5D
:10435000021423F00A020A438461026210BD10B500
:10436000036A046A24F010040462846923F0A00341
:1043700024F4704444EA023243EA0111826101628A
:1043800010BD000070B5044600680169E26821F4C0
:104390004051114301612169A068084361690843E4
:1043A0002168CA6841F20C639A430243CA602068DC
:1043B0004169A26921F44071114341611E4920689D
:1043C000884202D1FDF708FA01E0FDF7F5F900EBAC
:1043D000C00101EB0012606864218000B2FBF0F3C1
:1043E000B3FBF1F36FF018067343B2FBF0F5B2FBC9
:1043F000F0F605EB8305322303EB0515B5FBF1F56C
:10440000B6FBF1F605F0F00505EB0615B2FBF0F68C
:10441000B2FBF0F0B0FBF1F06FF01802504306EB86
:10442000800003EB0010B0FBF1F0216800F00F00FA
:104430002844886070BD000000380140FEE709078D
:10444000090E002804DB00F1E02080F8001470471A
:1044500000F00F0000F1E02080F8141D704702E02A
:1044600008C8121F08C1002AFAD1704770470020FF
:1044700001E001C1121F002AFBD1704770B5040092
:1044800005D0164E3068844209D1002070BD5020FE
:1044900080F31188BFF34F8FBFF36F8FFEE700F0FB
:1044A000C7FD656900F0E4FD7068854202D0B06820
:1044B000854201D1022070BD0948854204D1A06A1D
:1044C0000028F7D1032070BD05481438854202D07A
:1044D0000DB1012070BD042070BD0000CC0F002084
:1044E0005C1B0020F0B50C49032001F10E028D7910
:1044F000CB784C790E790BE012F81070A74205D1F9
:1045000002EB40077F78AF4200D10123401CC0B2CC
:10451000B042F1D3CB70F0BDA8100020FCF7C4FF6F
:10452000FFF7D8FDFEF74AF9FEF7B0F9FEF716FAE5
:10453000FEF7A6FAFEF770FA0448FDF727FC00F034
:1045400007F8FEF7E1F800F01FF8FEE794150020E9
:10455000EFF3058058B9EFF3108040B909490868B6
:10456000022801D030B109E0EFF3118030B16FF0D3
:104570000500704701200860002070474FF0FF30B1
:10458000704700001C10002010B5EFF3058060B9E3
:10459000EFF3108048B90B490868022802D00128BF
:1045A00006D00BE0EFF3118040B16FF0050010BDB5
:1045B0000220086000F038FF002010BD4FF0FF30EF
:1045C00010BD00001C100020F0B585B04FEA0103BB
:1045D0004FF00004EFF305810394A1BBEFF31081CA
:1045E00089BB21490968022902D1EFF3118151BB2E
:1045F00048B3802618218DF8104004AD42B31768E7
:1046000007B13D4697691FB139467F1E382F02D248
:104610001779FF0702D0002005B0F0BD576907B138
:10462000BE08D2F808C0BCF1000F0DD0D4685C2CD5
:1046300018D312693AB137B18DE8061032462946CF
:1046400001F0A9FA03900DE0D7685FB912694AB981
:1046500003AACDE90012B2B2294601F06FFA01288F
:1046600000D003940398D7E71C1000202DE9F041F7
:10467000134C0F46054666692068001D00F07AFC61
:10468000681C07D137B12168BDE8F0410D48091D0C
:1046900000F0C1BC20683544B5424560216805D2B0
:1046A000A068BDE8F041091D00F09DBC6068091DCF
:1046B00000F099FC206B854200D22563BDE8F081B3
:1046C000CC0F00205C1B00202DE9F041054600F0D6
:1046D000AFFC2D4C2069401C206120682B4F10B18D
:1046E000E06930B32BE025602069012827D100263E
:1046F00006EB860007EB800000F067FC761C382E86
:10470000F6D3234800F061FC2148143000F05DFC32
:104710001F48283000F059FC1D483C3000F055FC83
:104720001B48503000F051FC194860601430A06004
:1047300005E02068E96AC06A884200D82560E06A1E
:10474000401CE0626864E86AA169884200D9A061FF
:1047500000EB800007EB8000291D00F05CFC00F0FE
:1047600087FCE06900280CD02068E96AC06A8842AA
:1047700007D208494FF080500860BFF34F8FBFF356
:104780006F8FBDE8F0810000CC0F0020AC16002038
:104790000C1B002004ED00E038B500F049FC104C83
:1047A000A068C8B90F4800F010FC0E48143000F0A3
:1047B0000CFC0C482060143060600A4B0020283349
:1047C000009003F1540210210A2000F04DFFA06078
:1047D00010B105A100F0CAFCBDE8384000F048BCAB
:1047E00008100020701B0020546D72510000000062
:1047F00030B4026C0B46002A0BD0C1681144C16072
:104800004468A14201D30168C16030BC1846FBF77F
:10481000E9BC30BC70472DE9F041856B1746044672
:104820000026026C82B1C7B1E068FBF7DBFCE168EF
:10483000206C091AE1602268914202D26168081A6C
:10484000E060022F16D017E02068A8B9606801F078
:1048500045FA0646002060600EE0A068FBF7C2FC47
:10486000216CA0680844A0606168884204D3206875
:10487000A06001E005B16D1E6D1CA5633046BDE86A
:10488000F08110B5044690F8590058B101280CD0B9
:1048900002280FD0502080F31188BFF34F8FBFF351
:1048A0006F8FFEE7206B00F0F7FB2046BDE810405D
:1048B00000F0F2BB10BD000010484FF41051420749
:1048C00006D0C01D0D4920F00700411AC1F5105156
:1048D0000B4A00230144C2E900030839103A21F0D1
:1048E000070111604B600B600B1AC0E90013936065
:1048F0004FF000405360D060704700004423002018
:1049000030100020154E164CA6F29C474FF08058F0
:10491000DFF8509012E000BF00F08AFBF068C56835
:10492000281D00F027FB2069401E2061E068401E22
:10493000E06000F09DFB2846FFF7A3FFE068002839
:10494000EAD13868012805D9C9F80080BFF34F8F34
:10495000BFF36F8F00F038FBF0E70000481B00202A
:10496000CC0F002004ED00E070B51D46049C61B141
:10497000C4F80020C4E90F010121204600F0A8FE80
:1049800084F850500020A06470BD2460F2E72DE947
:10499000F0470E46DDE909841746824691009946A4
:1049A000089DA522206BFBF72FFC6FF00301206B05
:1049B00001EB8701084420F00707780707D0502053
:1049C00080F31188BFF34F8FBFF36F8FFEE722187C
:1049D000315C82F83410315C11B1401C1028F6D3E0
:1049E000002684F84360382D00D33725E562C4E9FA
:1049F0001356201D00F0F4FA04F1180000F0F0FA4C
:104A00002461C5F138006462A061666584F858606D
:104A10004A465146384600F09BFA2060B8F1000F34
:104A200001D0C8F80040BDE8F087000030B511495A
:104A300000E011460A688242FBD34B685C1884424E
:104A400003D1406818444860084643681C189442E3
:104A500009D1084C103C2468A24209D052681A447B
:104A600042600A6812680260814200D0086030BD6E
:104A70000460F9E73010002070B5002441600B4D50
:104A80000061914206D8D11A8269914206D2011D75
:104A9000686807E09A4203D2994201D3012403E0F7
:104AA000011D286800F09FFA204670BD0810002004
:104AB00010B5044600F0BCFAA06B28B15FF000040A
:104AC00000F0D6FA204610BD0124F9E773B50026A0
:104AD0000098846C5CB1A26BE06B82420FD35020D3
:104AE00080F31188BFF34F8FBFF36F8FFEE7502025
:104AF00080F31188BFF34F8FBFF36F8FFEE7A26B78
:104B000082420CD294F945500A4669462046FFF786
:104B100082FE0646681C04D06D1C84F84550304661
:104B20007CBD606A0028FAD004F1240001F016F977
:104B30000028F4D00126F2E730B589B0304D55E0B9
:104B40000498002806DADDE90601059A90470498E2
:104B500000284BDB069C606910B1201D00F00AFAAA
:104B600002A800F0B9F8024604980A283ED2DFE80D
:104B700000F00505053D263705053D260598A16988
:104B8000034601442046FFF777FF00B3616A2046E1
:104B90008847E069012829D1002000900598A16983
:104BA000002342181946204601F0A2F978B9502096
:104BB00080F31188BFF34F8FBFF36F8FFEE7059827
:104BC000A06128B1811813462046FFF755FF0DE07C
:104BD000502080F31188BFF34F8FBFF36F8FFEE734
:104BE00094F82C0010B9204600F056FA002204A9CF
:104BF000A86800F0CDFE0028A2D109B030BD0000A9
:104C0000081000202DE9FC410F46054600F09EFCEF
:104C100001A800F061F80446019818B101F0D6F837
:104C2000BDE8FC81224EAFB170680068A8B30027D0
:104C3000291B3A46B06800F0ADFA01F0C7F8002829
:104C4000EED11C494FF080500860BFF34F8FBFF387
:104C50006F8FE5E7A542EBD801F0B8F8306827463A
:104C6000C068C468201D00F085F9E069012810D1F2
:104C7000A0692B4641193A462046FFF7FDFE40B198
:104C800000200346014600902A46204601F030F9F4
:104C900020B1616A20468847C2E707E0502080F3D0
:104CA0001188BFF34F8FBFF36F8FFEE70127BFE778
:104CB0000810002004ED00E006484168096829B1A9
:104CC0004168C968C9684968016370474FF0FF319E
:104CD000FAE70000CC0F002070B5054600F094FF05
:104CE000064E04463069844203D200F009F80120E0
:104CF00000E0002028602046346170BD08100020CC
:104D0000F8B5194D1FE0C068C4680668201D00F0A2
:104D100031F9616A20468847E069012813D1A0690A
:104D20003044B04206D924616060211D286800F03B
:104D30005AF908E00020034601460090324620461A
:104D400001F0D6F838B1286801680029DBD169681C
:104D5000C5E90010F8BD502080F31188BFF34F8FD4
:104D6000BFF36F8FFEE7000008100020002101E074
:104D7000401C491C0278A52AFAD0C1F38F00704765
:104D800008484068401C4FF0500080F3118804D060
:104D9000BFF34F8FBFF36F8FFEE7BFF34F8FBFF3AC
:104DA0006F8FFEE738100020002150B10A4B426996
:104DB0009A420FD1806AA3F1280290420AD040B1F2
:104DC00008E0502080F31188BFF34F8FBFF36F8F3F
:104DD000FEE70121084670475C1B0020074C206855
:104DE000016841B1C0680021D0F80000FFF70AFF58
:104DF000FFF7A2FEF3E701210020F7E708100020EB
:104E00002DE9F041044600F013F994F9455004F1FE
:104E1000240610E0A06C20B100212046FFF756FECA
:104E200004E0606A48B1304600F098FF08B100F035
:104E300083FA6D1E6DB2002DECDC4FF0FF3684F866
:104E4000456000F015F900F0F3F894F9445004F1CE
:104E5000100709E0206948B1384600F07FFF08B12B
:104E600000F06AFA6D1E6DB2002DF3DC84F8446028
:104E7000BDE8F04100F0FCB82DE9F04105460027FF
:104E800000F064FB314E306808B9FFF715FDF0689B
:104E900005424BD1C5B3083568070ED005F00700B1
:104EA000C0F108000544680707D0502080F311883E
:104EB000BFF34F8FBFF36F8FFEE72DB3706885424E
:104EC00034D82248103001460C6801E020460C46D8
:104ED0006168A94202D221680029F7D131688C4269
:104EE00024D007682168016060680837411B1029D9
:104EF0000FD96019420708D0502080F31188BFF302
:104F00004F8FBFF36F8FFEE710E041606560FFF7E2
:104F10008DFD61687068401A7060B268904200D27E
:104F2000B060F06801430020C4E9000100F04EFFCA
:104F3000780707D0502080F31188BFF34F8FBFF35D
:104F40006F8FFEE73846BDE8F0810000201000209A
:104F500010B5031F4FF080741C601B1F21F001016E
:104F60001960191F024B0B60143940380A6010BDDC
:104F7000814D0008D0E9013201699A60D0E901232E
:104F80005A604A68824201D182684A600022026106
:104F90000868401E0860086870470000034B036003
:104FA00003F15C0008608020106070478C1C0020BA
:104FB000044B036003F15C0008604FF480701060E4
:104FC00070470000E81E0020704700F108014FF014
:104FD000FF32C0E90112C160016100210160704728
:104FE00000210161704730B50B685A1C02D000F1F6
:104FF000080202E0026904E02246546825689D42E6
:10500000FAD953684B6099608A6051600861016801
:10501000491C016030BD42684A6093688B609368A8
:105020005960916008610168491C01607047000087
:10503000502080F31188BFF34F8FBFF36F8F0A4961
:105040004868401C486001280CD10848006810F0EE
:10505000FF0F07D0502080F31188BFF34F8FBFF3AD
:105060006F8FFEE7704700003810002004ED00E06D
:105070000849486828B1401E486001D180F3118872
:105080007047502080F31188BFF34F8FBFF36F8FAD
:10509000FEE700003810002070B5002827D0144D1E
:1050A000A0F108046168E868014207D1502080F34C
:1050B0001188BFF34F8FBFF36F8FFEE722683AB1BD
:1050C000502080F31188BFF34F8FBFF36F8FFEE73F
:1050D0008143616000F03AFA60686968084468607A
:1050E0002046FFF7A3FCBDE8704000F06FBE70BD26
:1050F000201000204FF0E02000210161816105496E
:105100004FF47A720968B1FBF2F1491E416107213F
:1051100001617047C80F002010B5FBF73BF811493B
:1051200010280ED300F1E02090F8F0030A789042A6
:1051300007D2502080F31188BFF34F8FBFF36F8FDA
:10514000FEE709480068896800F4E060884207D9F2
:10515000502080F31188BFF34F8FBFF36F8FFEE7AE
:1051600010BD0000381000200CED00E010B5084B19
:10517000002200BF53F832401CB1521C082AF9D358
:1051800010BD43F8321003EBC201486010BD0000AF
:105190006C16002070B515460E460446FFF748FF12
:1051A00094F944100020491C01D184F8440094F97A
:1051B0004510491C01D184F84500FFF759FFA06B49
:1051C00028B92A46314604F1240000F0D3F82046DD
:1051D000BDE87040FFF714BE10B5020014D00F48B0
:1051E000806B38B1502080F31188BFF34F8FBFF32D
:1051F0006F8FFEE700F0AAF900211046FFF736FA9C
:1052000000F0E4FD002807D105494FF08050086008
:10521000BFF34F8FBFF36F8F10BD0000CC0F002086
:1052200004ED00E070B50546FFF702FF1E4C05B91E
:105230002568281DFFF79EFEA86A18B105F1180021
:10524000FFF798FEE06A401CE0622068854207D1C3
:10525000291D1648FFF7DFFEE068401CE06007E00C
:105260002069401E20612846FFF70BFBFFF724FD55
:10527000FFF7FEFEE069002814D02068854211D1B6
:10528000A06B38B1502080F31188BFF34F8FBFF36C
:105290006F8FFEE706494FF080500860BFF34F8FD5
:1052A000BFF36F8F70BD0000CC0F0020481B0020A3
:1052B00004ED00E02DE9F0410C461A491646B0B164
:1052C0004FEA000505F13400C4E90050E86A2061A6
:1052D000286BE061686CA0600027E86CC4E90507F2
:1052E000052B12D00868854203D1277311E00D68A1
:1052F000E8E72373032B0CD100F028F9A86A08B162
:105300000220207300F062FD03E02846FFF7B6F8A4
:1053100020732EB1286BFFF729FD2084BDE8F081B2
:105320002784FBE7CC0F002002498A6A02604969A2
:1053300041607047CC0F002001490120486270474E
:10534000CC0F002010B50C4650B10949096818313E
:10535000FFF749FE2046BDE810400121FFF786B95E
:10536000502080F31188BFF34F8FBFF36F8FFEE79C
:10537000CC0F002070B514460D4668B10A49096883
:105380001831FFF748FE0CB14FF0FF352146284693
:10539000BDE87040FFF76AB9502080F31188BFF371
:1053A0004F8FBFF36F8FFEE7CC0F002070B5040066
:1053B0002AD01A4D286884422ED0FFF739FE2046A5
:1053C000FFF7F2FCE0B1201DFFF7D4FDE06AA96908
:1053D000884200D9A861124900EB800001EB8000EF
:1053E000211DFFF718FEE06A2968C96A884207D3C1
:1053F0000C494FF080500860BFF34F8FBFF36F8FA1
:10540000BDE87040FFF734BE502080F31188BFF331
:105410004F8FBFF36F8FFEE770BD0000CC0F0020F1
:10542000AC16002004ED00E030B587B000240394F2
:1054300005AA04A903A80494FFF7B0FDDDE9030160
:105440000094CDE90110002315A11748059A00F03A
:10545000A2FB164D002868631FD000F019FD01283B
:1054600009D0401C19D1502080F31188BFF34F8F11
:10547000BFF36F8FFEE7502080F31188BFF34F8F8B
:10548000BFF36F8F4FF0FF3028630120E8616C613C
:1054900007B0BDE8304000F093B807B030BD000061
:1054A00049444C450000000005490008CC0F00208D
:1054B00070B50446FFF7BCFD214D04B92C68201DD2
:1054C000FFF758FDA06A18B104F11800FFF752FD6C
:1054D000211D1C48FFF79FFD94F858000026012865
:1054E00001D184F85860FFF7C3FDE86928B1FFF7E0
:1054F0009FFDFFF7E1FBFFF7BBFD2868844213D156
:10550000E86990B1A86B38B1502080F31188BFF3DF
:105510004F8FBFF36F8FFEE70B494FF0805008604D
:10552000BFF34F8FBFF36F8F70BD064800682969C6
:10553000884201D12E6070BDBDE8704000F00EB809
:10554000CC0F00205C1B002004ED00E00248816BC2
:10555000491C816370470000CC0F0020164810B52D
:10556000816B11B10121416210BD0021416281694D
:10557000124A01E0B9B1491E01EB810352F8233010
:10558000002BF7D001EB810302EB830202F1080448
:1055900053685B685360A34201D15B685360DA686B
:1055A0000260816110BD502080F31188BFF34F8FDE
:1055B000BFF36F8FFEE70000CC0F0020AC16002079
:1055C0001CB5264908780190FF20087008788DF8EE
:1055D00000009DF800009DF8002000F0F0009042CF
:1055E00007D0502080F31188BFF34F8FBFF36F8F28
:1055F000FEE79DF800001A4B00F0500018700720DD
:10560000986005E09DF8002052008DF80020401EB3
:105610009DF800201206F5D49860032807D050208A
:1056200080F31188BFF34F8FBFF36F8FFEE74FF406
:1056300040709860019808700A48016841F4700150
:105640000160016841F070410160FFF753FD0020E7
:105650005860FAF769FD00201CBD000000E400E07E
:105660003810002020ED00E038B5049D18B153B18A
:10567000CAB181B120E0502080F31188BFF34F8F71
:10568000BFF36F8FFEE7502080F31188BFF34F8F79
:10569000BFF36F8FFEE7502080F31188BFF34F8F69
:1056A000BFF36F8FFEE739B1502080F31188BFF34D
:1056B0004F8FBFF36F8FFEE754241C46012384F8FD
:1056C00046302B460094FFF74FF9204638BD0000C6
:1056D00070B50D46040025D0FFF7AAFCD4E90F20D1
:1056E000216802FB001161600021A1632168A160B3
:1056F0000A46D4E90F01401E00FB0121E16021466A
:105700004FF0FF3001F8440F487004F110008DB1E4
:10571000FFF75BFC04F12400FFF757FCFFF7A8FC40
:10572000012070BD502080F31188BFF34F8FBFF36D
:105730006F8FFEE721690029F0D000F00FFB0028F1
:10574000ECD004494FF080500860BFF34F8FBFF397
:105750006F8FE3E704ED00E02DE9FF4782B01D46BF
:105760008A464FF00008040003D0BAF1000F08D0B9
:1057700011E0502080F31188BFF34F8FBFF36F8F7C
:10578000FEE7206C38B1502080F31188BFF34F8FB3
:10579000BFF36F8FFEE7022D0AD1E06B012807D01F
:1057A000502080F31188BFF34F8FBFF36F8FFEE758
:1057B00000F01CFA424F4FF000094FF0805648B9F4
:1057C000049838B1502080F31188BFF34F8FBFF396
:1057D0006F8FFEE7FFF72CFCA06BE16B884207D3CD
:1057E000022D05D0049808B3B8F1000F21D025E0B0
:1057F0002A4651462046FFF70EF8A16C21B12946F2
:105800002046FFF763F905E0616A19B104F124004D
:1058100000F0A4FA20B13E60BFF34F8FBFF36F8F4B
:10582000FFF726FC012006B0BDE8F087FFF720FC5B
:1058300022E06846FFF778FD4FF00108FFF718FCFB
:10584000FFF784FEFFF7F4FB94F94400401C01D1FC
:1058500084F8449094F94500401C01D184F84590A7
:10586000FFF706FC04A9684600F02EF930B1204687
:10587000FFF7C6FA00F0AAFA0020D4E7FFF7D8FB3A
:10588000A06BE16B884213D1FFF7F2FB04F110002B
:105890000499FFF757FD2046FFF7B2FA00F096FA99
:1058A000002897D13E60BFF34F8FBFF36F8F91E712
:1058B000FFF7DEFB2046FFF7A3FA00F087FA89E73F
:1058C00004ED00E02DE9F0479846174689460400AC
:1058D00003D0B9F1000F08D011E0502080F31188F7
:1058E000BFF34F8FBFF36F8FFEE7206C38B15020AE
:1058F00080F31188BFF34F8FBFF36F8FFEE7B8F1CE
:10590000020F0AD1E06B012807D0502080F31188E4
:10591000BFF34F8FBFF36F8FFEE7FFF7FDFB502004
:10592000EFF3118680F31188BFF34F8FBFF36F8FB2
:10593000A06BE16B884207D3B8F1020F04D00020BE
:1059400086F31188BDE8F08794F9455042464946F0
:105950002046FEF760FF681C04D06D1C84F845509B
:105960000120EDE7A06C012520B141462046FFF75C
:10597000ADF806E0606A0028F2D004F1240000F0DF
:10598000EDF90028ECD0002FEAD03D60E8E70000F8
:105990002DE9F747002683B08A46040003D0BAF108
:1059A000000F08D011E0502080F31188BFF34F8F13
:1059B000BFF36F8FFEE7206C38B1502080F3118861
:1059C000BFF34F8FBFF36F8FFEE700F00FF9DFF8E3
:1059D000F4804FF000094FF0805748B9059838B16E
:1059E000502080F31188BFF34F8FBFF36F8FFEE716
:1059F000FFF71EFBA56BC5B151462046FEF7F8FE2A
:105A00006D1EA563206950B104F1100000F0A6F9E5
:105A100028B1C8F80070BFF34F8FBFF36F8FFFF747
:105A200027FB012006B0BDE8F087059808B11EB13C
:105A300006E0FFF71DFB27E06846FFF775FC01262F
:105A4000FFF716FBFFF782FDFFF7F2FA94F9440027
:105A5000401C01D184F8449094F94500401C01D1C8
:105A600084F84590FFF704FB05A9684600F02CF880
:105A7000002820460AD0FFF7C3F900F0A7F9204616
:105A8000FFF716F80028B3D00020CBE7FFF710F897
:105A900090B104F124000599FFF754FC2046FFF76C
:105AA000AFF900F093F90028A2D1C8F80070BFF355
:105AB0004F8FBFF36F8F9BE72046FFF7A1F900F0F0
:105AC00085F995E704ED00E02DE9F0410C4605006D
:105AD00011D0C4B1FFF7ACFA174B5A696E68206851
